:100000000C94B2020C94F9020C94F9020C94F902CB
:100010000C94F9020C94F9020C94F9020C94F90274
:100020000C94F9020C94F9020C9420280C94F428F6
:100030000C942B1F0C94F9020C94F9020C94F90205
:100040000C94F9020C94F9020C94F9020C94F90244
:100050000C94F9020C94761F0C94F9020C94F9029A
:100060000C94F9020C94F9020C94F9020C94F90224
:100070000C94F9020C94F9020C94F9020C94F90214
:100080000C94F9020C94F9020C94F9020C94F90204
:100090000C94F9020C94F9020C94F9020C94F902F4
:1000A0000C94F9020C94F9020C94F90229001E0038
:1000B0001F0020002100220023002400250026002C
:1000C00027002D002E00310035002B000000140009
:1000D0001A000800150017001C0018000C00120080
:1000E00013002F0030002A00E0000000040016007A
:1000F000070009000A000B000D000E000F0033007E
:10010000340028000000E10000001D001B00060074
:1001100019000500110010003600370038000000FB
:10012000E500E5000151E2000000E30000000000EE
:100130002C00000000000000E70001580000E6006D
:10014000E400A6003A003B003C003D003E003F00BA
:10015000400041004200430044004500AA00A900BD
:100160000100000001000100010001000100010088
:10017000010001000100AE004A004D004C000100EA
:1001800000000100010001000100010050005100C9
:1001900052004F004B004E00010000000100000023
:1001A000010001000100010001000100A800BC00E5
:1001B000BB0001000000010001000100010000007F
:1001C000010000000000010000000000000001002C
:1001D000010000000100010032190A00047F3F1FE6
:1001E000643214643214783C1E1E140A052223253E
:1001F0002628292A2C2D2F3032333536383A3B3DEC
:100200003E4042434547494A4C4E50515355575939
:100210005A5C5E6062646668696B6D6F7173757756
:10022000797B7D7F81838587898A8C8E9092949655
:10023000989A9C9E9FA1A3A5A7A8AAACAEAFB1B364
:10024000B4B6B8B9BBBCBEBFC1C2C3C5C6C7C9CAB4
:10025000CBCCCDCED0D1D2D2D3D4D5D6D7D7D8D976
:10026000D9DADADBDBDBDCDCDCDCDCDDDDDDDDDCD4
:10027000DCDCDCDCDBDBDBDADAD9D9D8D7D7D6D5E6
:10028000D4D3D2D2D1D0CECDCCCBCAC9C7C6C5C3A8
:10029000C2C1BFBEBCBBB9B8B6B4B3B1AFAEACAAF5
:1002A000A8A7A5A3A19F9E9C9A98969492908E8CA5
:1002B0008A89878583817F7D7B79777573716F6D7F
:1002C0006B6968666462605E5C5A59575553515059
:1002D0004E4C4A4947454342403E3D3B3A3836350D
:1002E0003332302F2D2C2A292826252322FFAA7FBE
:1002F0005540000101010101010101010202020258
:1003000002020202020303030303030303040404BF
:100310000404040405050505050606060606070788
:1003200007070708080808090909090A0A0A0B0B40
:100330000B0C0C0C0D0D0D0E0E0E0F0F0F101011DF
:100340001111121213131414151516161717181865
:1003500019191A1A1B1B1C1D1D1E1E1F20202122CD
:1003600022232424252626272829292A2B2C2D2D13
:100370002E2F30313232333435363738393A3B3C30
:100380003D3E3F404142434445464748494A4C4D23
:100390004E4F50515354555658595A5B5D5E5F61EC
:1003A0006264656668696B6C6D6F7072737577787F
:1003B0007A7B7D7E8082838587888A8C8E8F9193DD
:1003C0009596989A9C9EA0A2A3A5A7A9ABADAFB104
:1003D000B3B5B7BABCBEC0C2C4C6C9CBCDCFD1D4E9
:1003E000D6D8DBDDDFE2E4E7E9EBEEF0F3F5F8FA8F
:1003F000FDFF0403300000000A0344005A003600E9
:100400003000000010034B00420044004600610031
:100410006E00730000000403090409023B0002019E
:1004200000A0FA09040000010301010009211101E3
:1004300000012240000705810308000A09040100A9
:10044000010300000009211101000122BC00070581
:10045000820320000A12011001000000085A4460C3
:100460002201000102030105010902A1018502091F
:1004700001A100050919012905150025019505753A
:1004800001810295017503810105010930093115CA
:1004900081257F95027508810609381581257F958C
:1004A0000175088106050C0A38021581257F950122
:1004B00075088106C0C005010980A10185031901E5
:1004C0002AB700150126B700950175108100C005F7
:1004D0000C0901A101850419012AA002150126A019
:1004E00002950175108100C005010906A10185056D
:1004F000050719E029E71500250195087501810216
:100500000507190029EF1500250195F075018102F5
:1005100005081901290595057501910295017503D5
:100520009101C005010906A101050719E029E71598
:100530000025019508750181029501750881010565
:1005400007190029FF150026FF0095067508810090
:100550000508190129059505750191029501750395
:100560009101C00011241FBECFEFDAE0DEBFCDBF86
:1005700004B603FE27C080916A0390916B03A0919B
:100580006C03B0916D038730904BA740B04BD1F412
:1005900010926A0310926B0310926C0310926D0319
:1005A00014BE84B7877F84BF0FB6F894A895809156
:1005B0006000886180936000109260000FBEE0E0F0
:1005C000F8E3099511E0A0E0B1E0E4E8F8E502C045
:1005D00005900D92AC3CB107D9F723E0ACECB1E04B
:1005E00001C01D92AA36B207E1F70E9451250C9472
:1005F000042C0C940000229A2A9A08950E94030663
:100600000C94FB0281FF03C02A980C948F032A9A52
:10061000FCCFCF92DF92EF92FF926B017C010E94A0
:10062000F71C813089F40E94D30C81E00E94D00C29
:1006300040E060E08FEF0E946208C701B601FF90C2
:10064000EF90DF90CF9008950E943B0CF6CF0E9470
:10065000180D6091AB027091AC028091AD02909147
:10066000AE020C94090381E0089581E008950C9492
:10067000350308950C9439031F93CF93DF9300D073
:1006800000D00F92CDB7DEB749835A836B83309188
:10069000400289819A8131111DC06623B9F022235D
:1006A000A9F00E94B31B182F682F89819A810E949C
:1006B0005F1B69817A81812F0F900F900F900F90AF
:1006C0000F90DF91CF911F910C94F8030E948B1B28
:1006D000182FEFCF0E94B31B69817A81EDCFFC0107
:1006E000262F408151816281738184810C943C0367
:1006F000CF93DF93EC0160E00E946F03BE01DF91B6
:10070000CF910C943A030E94441D811102C00E94B3
:10071000F41D0E94B50F0C94FE020C94050608957A
:1007200081E008950C949003CF93C82F0E94020398
:100730008C2FCF910C94920308950E94CB160E94A7
:100740009C032FEF84E39CE0215080409040E1F730
:1007500000C000000C949A1F0F931F93CF93DF9358
:10076000EC0161E00E946F038C01BE010E9437031F
:10077000882389F1BE01C8010E94210F882359F105
:10078000BE01C8010E945E10882329F1BE01C80184
:100790000E949F108823F9F0BE01C8010E94C21177
:1007A0008823C9F0BE01C8010E94E80D882399F092
:1007B0008A81882339F001158CE5180751F00E3D28
:1007C0001C4579F0CE01DF91CF911F910F910C94D0
:1007D00033030E949D0380E0DF91CF911F910F9121
:1007E00008950E94F41DF7CF90E080E008950895E9
:1007F000972F70E02FE0929F600D711D1124FB0177
:100800009BE4899FE00DF11D1124EE0FFF1FE455BD
:10081000FF4F859194910895FC01EE0FFF1FE85260
:10082000FE4F859194910895CF93DF930E94F80332
:100830000E942905EC01811520E5920708F042C0CD
:10084000811530E4930708F0BDC0883E910528F576
:10085000803E910508F09DC0883A910588F4853A5C
:10086000910508F08FC08130910509F492C000977E
:1008700009F48FC0049708F08CC0D0E0C0E089C0B4
:100880008F3B910508F489C0805C9109C03CD1057B
:10089000A0F30E940C04EC017CC08115904250F43E
:1008A000C11581E0D80708F074C0C03FD10528F316
:1008B000D0656FC0C11590E3D90708F079C0CE01AB
:1008C0009F70E7CF811525E5920758F5811534E52E
:1008D000930708F0A6C0811542E5940750F4C115AE
:1008E00081E5D80708F471C0DC2FCC27C16FD06A2E
:1008F00050C0982F969596959E0123703327C11569
:10090000D34508F07FC0C1E0D0E002C0CC0FDD1FAE
:100910002A95E2F720E2929FC0011124C82BD92B1F
:100920006FC0C11589E5D807A8F4C11598E5D907A6
:1009300008F07CC0C11526E5D20708F09ECF8C2FA9
:100940000E94C005C82FD0E0DC2FCC27CC27DF7158
:10095000D0621FC0C1153AE5D30708F46CC0CE01C0
:1009600090568115904208F088CF8D2F8F710E948C
:10097000C00590E0982F882788279F719C012C2B19
:10098000E901E6CFC55AD0E0C75ADE4FC881D0E0B2
:10099000D064CE01DF91CF910895C85AD0E0CC0F3A
:1009A000DD1FC55DDE4F0990D881C02DD464F1CF25
:1009B000CE019927D3FF03C0EC01D86CEACFEC013C
:1009C000D06CE7CFDF70D06AE4CFCE01E4E096953B
:1009D0008795EA95E1F783702C2F2695269523704D
:1009E00090E2299F90011124382B8C2F8370C1E055
:1009F000D0E002C0CC0FDD1F8A95E2F7C22BD32BCB
:100A0000DC68C7CFC1E0D0E002C0CC0FDD1F2A9563
:100A1000E2F730E2939FC0011124C82BD92BDA688A
:100A2000B8CFD82FCC27C46FD06AB3CFDC2FCC2758
:100A3000C06FD06AAECF8C2F8F700E94C00534E09B
:100A4000D695C7953A95E1F7CF709C2FEC01D06908
:100A5000A0CF82389105B1F1B0F48133910509F44A
:100A600075C048F48932910509F469C08A3291054C
:100A700009F473C008958533910509F459C0893389
:100A8000910501F10895833E9105A9F138F4803E66
:100A90009105F9F0823E910549F10895863E910550
:100AA000A9F1873E9105C9F1843E910519F5209180
:100AB0005C0321FF1FC080915B0384FD14C087EE9F
:100AC00090E0089520915B032370A1F080EE90E008
:100AD000089520915B0320FD47C030915C0330FFF7
:100AE00009C024FF44C090E080E004C020915B0373
:100AF00022FDF7CF089520915B0322FD3BC030918A
:100B00005C0330FDE3CF24FFF5CFEDCF20915B03F5
:100B100023FFF0CF24FDE7CFD2CF20915B0323FD4D
:100B20002CC030915C0331FFEECF84EE90E008954D
:100B300020915B0325FFDECF89E290E008952091AC
:100B40005B0325FFD7CF85E390E0089520915B03F9
:100B500026FFD0CF8AE290E0089520915B0326FF24
:100B6000C9CF81E390E0089589E390E0089583EE92
:100B700090E0089582EE90E0089586EE90E008956A
:100B800090915B0392FF06C0282F28712830F9F45A
:100B9000877F846093FF06C0282F28712831F1F4E5
:100BA000877E846120915C0320FF06C0382F387156
:100BB0003830D9F4877F816021FF06C0282F287143
:100BC0002831D1F4877E816194FD877E0895282F96
:100BD00024712430F9F68B7F8860DCCF282F2471B4
:100BE000243101F78B7E8861DDCF382F31713130B0
:100BF00019F78E7F8860E0CF282F2171213121F7EE
:100C00008E7E8861E1CF089508950C940406E82F44
:100C1000F0E0EE0FFF1FE95EFC4F808191810895A7
:100C2000089580EA8A95F1F70895CF93DF93ABE6B4
:100C3000B1E040E751E0C1E0D0E08D91E82FE295CE
:100C4000EF70F0E061A18F709E0101C0220F8A95C4
:100C5000EAF7922F9095962391A382A1822B82A3EB
:100C60004A175B0751F7ACE5B1E061E070E08D91A8
:100C7000E82FE295EF70F0E041A18F709B0101C079
:100C8000220F8A95EAF7922F9095942391A382A13F
:100C9000822B82A381E0AB36B80749F710920E038E
:100CA00010920D0310921803109217031092100364
:100CB00010920F0310921A0310921903109212034C
:100CC0001092110310921C0310921B031092140334
:100CD0001092130310921E0310921D03109216031C
:100CE000109215031092200310921F0385E00E94BA
:100CF0000407DF91CF910C9483038F929F92AF9260
:100D0000BF92CF92DF92EF92FF920F931F93CF93F8
:100D1000DF938BE6E82E81E0F82E0DE013E0912CB6
:100D2000AA24A394B12CF70181917F01C82FC29509
:100D3000CF70D0E099A18F70650101C0CC0C8A956D
:100D4000EAF7892F8C2989A38AA18C2C8094882189
:100D50008AA30E941106ECE5F1E050E040E030E0AB
:100D600020E06191A62FA295AF70B0E090968C9193
:100D700090E06F7002C0959587956A95E2F780FDC7
:100D80003EC0C501042E02C0880F991F0A94E2F7E5
:100D9000282B392B4F5F5F4F4F30510511F789A139
:100DA000882289A28AA1C82ACAA2F80180819181D9
:100DB0002817390739F13183208381E0982A0E5FA3
:100DC0001F4FF0E7EF16F1E0FF0609F0ACCF292D39
:100DD00045E067E173E08DE093E00E9405070E9423
:100DE0008D03892DDF91CF911F910F91FF90EF908F
:100DF000DF90CF90BF90AF909F908F90089590E03C
:100E000080E0C6CF80E0DACF0895FF920F931F9362
:100E1000CF93DF93F82E092F162FD72FC42F22231D
:100E200049F081E08093CE010E945B1F9093CD0139
:100E30008093CC018091CE018823A1F08091CC01D8
:100E40009091CD010E94671F069760F0EF2DF02F63
:100E5000A12FBD2F90E080E0D0E08C179D0744F0DB
:100E60001092CE01DF91CF911F910F91FF900895C5
:100E7000219131912D933D930196EFCFAF92BF9287
:100E8000CF92DF92FF920F931F93CF93DF93362F72
:100E9000472FE82FF0E0EE50FD4F71110DC0649127
:100EA000762F862FDF91CF911F910F91FF90DF90CA
:100EB000CF90BF90AF900895C72FD0E02491F22E2D
:100EC000022F10E056E0659FC0011124EFEFF0E023
:100ED000BF010E94C22A832F90E0880F991F35E539
:100EE000369FD001379FB00D11248A1B9B0B982F82
:100EF000990F980F6F01CC1ADD0AC09ED001C19ED8
:100F0000B00DD09EB00D11248B2F949FA001112401
:100F1000452F55276F01C41AD50AC09EA001C19E56
:100F2000500DD09E500D11245F01A91AB108AC9E3E
:100F30006001AD9ED00CBC9ED00C1124CD2CDD24C4
:100F4000EC19FD09E09FE001E19FD00DF09FD00D6D
:100F50001124ED2F62307105A1F048F4611571057F
:100F600069F06130710589F0EB2F852F07C064307F
:100F7000710571F088F066307105B1F76E2F722F30
:100F800091CFE22F2B2F8D2FF9CFE22F252FF6CFE8
:100F9000EB2F822F2D2FF2CF2B2F8F2DE52FEECF82
:100FA0000895CF93DF93762FE901682F842F0E9455
:100FB0003E07798368838A83DF91CF91089580917A
:100FC0002103982F9E7F29F48170826080932103F2
:100FD00008958635E8F381708465F8CF88E090E065
:100FE0000C949D2BCF92DF92EF92FF926B017C01CC
:100FF0000E94DF07B701A60188E090E0FF90EF9024
:10100000DF90CF900C94BB2BE1E2F3E083E0808390
:1010100011828FEF82838383148260817181828148
:1010200093810C94F2078091210380FF02C0869582
:10103000089580E0089580912503833018F48F5F30
:1010400080932503609121037091220380912303F3
:10105000909124030C94F20780912503882319F0C2
:101060008150809325036091210370912203809128
:101070002303909124030C94F20770E00C94C50FA5
:10108000609107018091210380FF0AC080910601D1
:1010900023E0829FC00111248A5D9C4F0C943D087F
:1010A000809108019091090123E0829FF0011124B1
:1010B000EA5DFC4F891750F71182108212828F5F10
:1010C0003396F8CF9091210390FF14C090910801BE
:1010D0002091090133E0939FF0011124EA5DFC4F58
:1010E000921710F00C9440088183608342839F5FC5
:1010F0003396F6CF0895CF93DF9300D00F92CDB7FC
:10110000DEB79091210390FF0AC09E012F5F3F4FF1
:101110000E94D1074B8169818A810E9462080F90E9
:101120000F900F90DF91CF910895CF93DF93EC0153
:10113000EC81F0E0E351FE4F4491E1E2F3E06281A3
:1011400081810E947B088C818F5F8C83DF91CF919E
:101150000895CF93DF93EC01E1E2F3E043816281F4
:101160008C810E947B088C818F5F8C83DF91CF9173
:1011700008950F931F93CF93DF9300D00F92CDB7B5
:10118000DEB78C018091CF0181110AC09E012F5FD3
:101190003F4F4FEF6FEF0E94D1078A818093CF01BD
:1011A000F8016481613069F08091CF0140E06623ED
:1011B00061F040E0623011F44091CF0180E060E0E6
:1011C00004C06091CF0140E080E00E946208F80115
:1011D000848190E0019663E070E00E94D62A8483C7
:1011E0000F900F900F90DF91CF911F910F91089565
:1011F000AF92BF92CF92DF92EF92FF920F931F9325
:10120000CF93DF9300D00F92CDB7DEB7182FF62E15
:10121000042FE22E9091210390FF29C0E92FE6953B
:10122000AE2FB0E0A059BE4F8C91809329029E7FD3
:10123000923059F59E012F5F3F4F812F0E94D107B9
:101240004B8169818A810E94620810932203F09287
:10125000230300932403EE2051F060912103709149
:10126000220380912303909124030E94F2070F90A0
:101270000F900F90DF91CF911F910F91FF90EF9002
:10128000DF90CF90BF90AF900895823019F4009115
:101290002403DBCF863019F410912203D6CF893096
:1012A000D9F3893191F6E9518E2F8170D82EE695C8
:1012B000F0E0E351FD4FA590B490C12CBB246091A8
:1012C0000A01C61618F00E944008BFCF2C2D30E04E
:1012D000A29EC001A39E900DB29E900D112470E0BD
:1012E0000E94C22A812FD11013C0860F409108019D
:1012F000420F532F511D9A01220F331F240F351F08
:101300002A5D3C4F402F6F2D0E94D107C394D7CF49
:10131000861BECCFE1E2F3E09181282F43816281CB
:1013200088E0890F0C94F80881E00C948A09E1E2C6
:10133000F3E09181282F4381628188EF890F0C941B
:10134000F80881E00C949709E1E2F3E0628128E07B
:10135000620F08F46FEF282F438181810C94F80805
:1013600081E00C94A409E1E2F3E0628128E0621BD1
:1013700008F460E0282F438181810C94F80881E013
:101380000C94B309E1E2F3E0438128E0420F08F452
:101390004FEF282F628181810C94F80881E00C9432
:1013A000C209E1E2F3E0438128E0421B08F440E097
:1013B000282F628181810C94F80881E00C94D10976
:1013C00020E00C94F808EF92FF921F93CF93DF93E5
:1013D000EC0110E0EE24EA94F12C60910A0116175A
:1013E00070F00E9440089A818C8190FF27C08F5F27
:1013F0008C83DF91CF911F91FF90EF900895209102
:101400000801422F410F5527551FCA019A01220F8B
:10141000331F280F391F2A5D3C4F70E0C7010E941F
:10142000D62A962F8C814091240360912303199F23
:10143000800D11240E94D1071F5FCFCF8150D8CFDC
:10144000BF92CF92DF92EF92FF920F931F93CF93B1
:10145000DF93FC0182810FEF80FF01E010E08091BB
:101460000A011817C0F00E9440088091D101013094
:1014700009F051C0811102C080910A01815080930E
:10148000D101DF91CF911F910F91FF90EF90DF90ED
:10149000CF90BF900895C0910801C12ED12CCC0DE2
:1014A000DD2DD11DCE01880F991FC80FD91FCA5D30
:1014B000DC4F198218821A8234E0E32EF12CB12C11
:1014C0008091D1018B0D813104F18F70082E000CB9
:1014D000990BC816D90691F4809124038E9DA00122
:1014E0008F9D500D112455954795559547959E0113
:1014F00060912303809122030E94D107B00EF1E096
:10150000EF1AF108E9F61F5FAACF87FFDFCF9091AE
:101510000A01890FDBCF90E0019660910A0170E02B
:101520000E94D62AACCF0F931F93CF93DF93809165
:1015300008019091090123E0829FF0011124EA5DE6
:10154000FC4F891740F1C0E0D3E060910A01C61753
:1015500040F10E944008209104018091D001820F47
:101560008093D00190910501920F90930501191677
:1015700054F4082E000C990B40910A014150550B70
:10158000841795071CF0219520930401DF91CF91DA
:101590001F910F9108951182108212828F5F3396EE
:1015A000D0CF0C2F10E070E0C8010E94D62A209105
:1015B0000801820F482F50E02091D001022E000C2C
:1015C000330B02171307BCF020910501022E000C0B
:1015D000330B201731077CF08D9F900111242A5D79
:1015E0003C4F4091240360912303809122030E9489
:1015F000D107CF5FAACFFA01EE0FFF1FE40FF51F4F
:10160000EA5DFC4F118210821282F3CF0F931F9379
:10161000CF93DF938C01FC018481958101968170C9
:10162000992795838483C0E0D5E580910A01C81786
:1016300030F0DF91CF911F910F910C9440082091D1
:101640000801422F4C0F5527551FCA019A01220F3E
:10165000331F280F391F2A5D3C4F8C2F8695F801C8
:1016600044815581840F952F911D817040912403F1
:10167000609123038D9F802D11240E94D107CF5F9D
:10168000D4CF0F931F93CF93DF93EC0110E000E0D2
:1016900090910A019017110609F06CF40E9440081D
:1016A0008C8190E00196817099278C83DF91CF9196
:1016B0001F910F91089520910801A801420F511D1B
:1016C0009A01220F331F240F351F2A5D3C4F4C8196
:1016D000609123038091220396959017110651F093
:1016E0004CF0442349F0409124030E94D1070F5F3E
:1016F0001F4FCECF4423B9F340E0F7CF8F929F9294
:10170000AF92BF92CF92DF92EF92FF920F931F930F
:10171000CF93DF93FC01B280948081E0848300E06A
:1017200015E05BE4A52E88248394EE24EA94F12C42
:101730007BE4C72ED12C80910A01081770F0DF914D
:10174000CF911F910F91FF90EF90DF90CF90BF90BE
:10175000AF909F908F900C944008C02FD0E01C9FBA
:10176000F0011D9FF00D1124EE52FE4F91101CC090
:101770001382128220910801CE01820F911D9C01DB
:10178000220F331F280F391F2A5D3C4F1C9FF00189
:101790001D9FF00D1124EE52FE4F42816181808128
:1017A0000E94D1070F5FC7CF2381222379F12150F7
:1017B000238334818A2D821B311101C0822F1C9F0B
:1017C000F0011D9FF00D1124EE52FE4F9091240365
:1017D000899FC0011124B6010E94C22A628321118F
:1017E00004C0332311F01482A38222E02B1510F2DF
:1017F0001C9FF0011D9FF00D1124EE52FE4F8091B1
:1018000022038083809123038183B4CF0E94782BAD
:10181000823091400CF0AECF82E08B1530F50E9403
:10182000782BB7010E94D62A1C9FF0011D9FF00D56
:101830001124EE52FE4F808322E02B15C8F40E9443
:10184000782B209123032695622F70E00E94D62AE0
:10185000280F1C9FF0011D9FF00D1124EE52FE4F2A
:1018600021831282A382848285CF80912203DCCFE0
:1018700020912303EECFE1E2F3E080818E7F80832D
:1018800060817181828193810E94F20710922A0205
:101890002FEF80E792E0215080409040E1F700C0B8
:1018A00000000C944008E1E2F3E080818E7F8083A9
:1018B00010922A022FEF80E792E021508040904062
:1018C000E1F700C000000C94400860912103669588
:1018D00070E04BE050E08BE091E00E94882B892B78
:1018E00019F481E080932A020E945B1F90932302E7
:1018F0008093220208959091210390FF35C091704A
:10190000811128C0926090932103662351F0609169
:1019100021037091220380912303909124030E945C
:10192000F20760912103669570E04BE050E08BE098
:1019300091E00E94882B892BA1F010922A0281E06D
:101940008093250240912403609123038091220318
:101950000C94E0098B3210F09465D5CF880F982B4A
:10196000D2CF0E94650CEBCF0895682F9091210390
:10197000969581E0890F8B3208F081E00C947B0C06
:1019800081E00C94B50C682F9091210396958FEF10
:10199000890F09F48AE20C947B0C81E00C94C30C4F
:1019A00061E00C947B0CE1E2F3E080818160808354
:1019B00086950C94D00C8091210380FD0C943B0CF7
:1019C0000C94D30C60E00C947B0C80912802811164
:1019D0002EC00E94441D811104C00E94F41D0E946B
:1019E00004080E94EE076093210370932203809302
:1019F0002303909324036E7F61F40E9404080E94E5
:101A0000EE07609321037093220380932303909346
:101A100024030E94DF0710922A028091210380FF95
:101A200003C086950E94E20C81E08093280208950D
:101A3000E1E2F3E080818160808386950C94E20C82
:101A400010922A0208950F931F93CF93DF938091F2
:101A50002A02882309F49DC080912902E091210384
:101A6000E695E81BE09324028230C9F5F0E0E751E7
:101A7000FE4FE491CE2FD0E005E918E080912502D9
:101A8000882389F0109225020E945B1F9E012095F9
:101A90003095820F931F909323028093220210921D
:101AA00027021092260280912202909123020E9426
:101AB000671F8C179D0708F46CC0E0912202F0911B
:101AC0002302CE0FDF1FD0932302C093220282E2B3
:101AD00092E0F801DF91CF911F910F910994863028
:101AE00049F4F0E0EA51FE4FE491CE2FD0E009EA4C
:101AF00018E0C4CF893051F4E695F0E0ED51FE4F87
:101B0000E491CE2FD0E003EE19E0B8CF8F3051F43E
:101B1000E695F0E0E052FE4FE491CE2FD0E000E2F7
:101B20001AE0ACCF853149F4F0E0E352FE4FE49186
:101B3000CE2FD0E003E91AE0A1CFC8EED3E006E053
:101B40001BE0883109F49ACF833239F4EBEDF1E0F0
:101B5000C591D49109EB18E091CFC4EFD1E001E435
:101B60001BE0843209F48ACFC0EDD7E000ED17E026
:101B7000853209F083CF8E2F63E00E94B62AE92FC9
:101B8000F0E0E852FE4FE491CE2FD0E00EE71BE0EC
:101B900075CFDF91CF911F910F910895FA018111B7
:101BA00001C0FB010994CF93DF93C82FD62F0E9469
:101BB00013088C1740F00E9413088D1720F4DF9152
:101BC000CF910C94C00C8C2FDF91CF910C94D00C42
:101BD0000F931F93CF938C01FB01C281CC2309F497
:101BE00065C00E94481C8272F801E25CFC45E43149
:101BF000F10538F4EA5FF34D0C940C2B0E94DB0CDA
:101C0000C0E08C2FCF911F910F9108954DEC5CE0B7
:101C100060EC7CE00E94CE0DF3CF40EC5CE06DEC1C
:101C20007CE0F8CF41EA59E064E979E0F3CF44E998
:101C300059E061EA79E0EECF4FEB59E060EB79E0F3
:101C4000E9CF40EB59E06FEB79E0E4CF4DED59E09F
:101C50006EEC79E0DFCF4EEC59E06DED79E0DACF54
:101C60004CE258E06BE178E0D5CF4BE158E06CE214
:101C700078E0D0CF81E00E94D00CC2CF65E082E056
:101C80000E94D30DBDCF68E086E0FACF6EE089E018
:101C9000F7CF64E18FE0F4CF67E185E1F1CF88E130
:101CA000EACF62E289E1ECCF83E2E5CFC1E0A9CFE0
:101CB0000E94441D811102C00E94F41D0E947C1DDF
:101CC00080935603803320F0877088628093560398
:101CD00090915603892F817090FF04C0892F8695BB
:101CE000869586950C94560F80915603982F96955D
:101CF00096959695953040F49F5F990F990F990F9F
:101D00008770892B8093560380915603816080935E
:101D100056030E94801D8091560386958695869570
:101D20000C94560F80915603982F987F79F0885025
:101D300080935603887F91E009F490E080915603E8
:101D400090FB80F9809356030E94801D809156037A
:101D50008695869586950C94560F8091560380FD46
:101D600013C0816080935603813019F489E0809319
:101D70005603809156030E94801D809156038695DC
:101D8000869586950C94560F08958091560380FF92
:101D900008C08E7F809356030E94801D80E00C94C3
:101DA000560F08958091560380FD0C94C50E0C9437
:101DB000AD0E90915603892F8695869586958F5FF7
:101DC0008F7197708630D8F4880F880F880F892B11
:101DD0008093560380915603887F91E009F490E048
:101DE0008091560390FB80F9809356030E94801DDA
:101DF000809156038695869586950C94560F909300
:101E00005603E8CF863008F085E09091560397702E
:101E1000282F220F220F220F922B90935603987F88
:101E200021E009F420E09091560320FB90F9909373
:101E300056030C94560F0E94020F809156030C9487
:101E4000801D9C01FB018281882349F12D3BFCE52B
:101E50003F07C9F040F42B3BECE53E0769F02C3B13
:101E60003C4579F008952F3B9CE5390791F070F0DF
:101E7000203C3C4589F0089585E00E941B0F80E0DE
:101E8000089580E0FACF0E94920EF9CF0E94740E5E
:101E9000F6CF0E94D20EF3CF0E94D90EF0CF81E090
:101EA0000895269A2E9808952E980895CF92DF923D
:101EB000EF92FF92CF93C82F863040F5811127C053
:101EC000809180008F7D809380000E94540F2C2F82
:101ED00030E0AFEFBFEF0E94122B25E030E040E092
:101EE00050E00E94EA2AC9012C3764E13607A8F4C1
:101EF00069E070E00E94C22A70938B0060938A00B0
:101F0000CF91FF90EF90DF90CF900895C5E0809142
:101F10008000806280938000DACF2A50374D4F4F87
:101F20005F4F942F832F722F662725EF38E241E011
:101F300050E00E94EA2A69017A01CA01B9010E94AF
:101F4000A62A9B01AC01C701B6010E94A62A672FF1
:101F5000782F892F99276115710521E08207910556
:101F600059F66FEF7FEFC8CF08950E94510F82E2BC
:101F70008093800089E1809381008FEF9FEF9093A1
:101F80008700809386000C94580E6A9A4EB14B7F5E
:101F90005EB15460EFB7F8949B01220F331F260FF8
:101FA000371F280F391F2817390741F4EFBF8FE576
:101FB00094E00197F1F700C000000895DC016D91F5
:101FC000CD0178E05EB9000000C067FF4EB9660F32
:101FD000000000C000C000C04EB900C07A9591F763
:101FE000E2CF0F931F93CF93DF93C62FD42F022FEF
:101FF000FC0182818823C9F060932D020E945B1F3F
:1020000090932C0280932B0280E28C0F883008F092
:1020100050C0C77081E001C0880FCA95EAF7DF9110
:10202000CF911F910F910C944F1410912D02161304
:1020300035C080912B0290912C020E94671F883C32
:10204000910560F5C0E2CD0F1D17B9F080E2810F58
:10205000883040F4177081E001C0880F1A95EAF7C4
:102060000E945614C83048F481E09D2F977001C03B
:10207000880F9A95EAF70E944F14802F0E943C1413
:10208000C830B8F4D77081E001C0880FDA95EAF75C
:10209000DF91CF911F910F910C94561480E28C0F19
:1020A000883038F4C77081E001C0880FCA95EAF71C
:1020B000EFCFDF91CF911F910F9108959C01CB013C
:1020C000233F4CE5340731F190F4283DFCE53F0710
:1020D000E9F0293D4CE5340769F1273D3C4579F4A9
:1020E00026E241EE61EE0E94F10F80E00895253F67
:1020F000FCE53F07B9F090F0263F3C45B9F0FC0104
:1021000082818823D1F010922D02089527E245EEB6
:1021100065EEE9CF26E241EE60EEE5CF27E245EE3F
:1021200064EEE1CF26E241EE62EEDDCF27E245EE3E
:1021300066EED9CF28E241E0EBCF81E00895CF935E
:10214000DF93EC01FB018281882309F419C1C230BD
:10215000FCE5DF07C0F1C6319CE5D90730F09E01F0
:102160002A5F3C452930310570F50E94611D90932E
:102170005C0380935B03C031ECE5DE0709F4CFC05C
:1021800008F05BC0C8308CE5D80709F4B6C088F504
:10219000C430ECE5DE0709F4A8C0C0F4C2308CE519
:1021A000D80709F49CC080915B038260C330DC4592
:1021B00009F498C080915B0390915C030E946F1DAD
:1021C0000E94CB1680E0DF91CF91089580915B0350
:1021D0008061C630ECE5DE0709F484C080915B03C2
:1021E0008860C730DC4508F47DC080915B03806265
:1021F00079C0CC308CE5D80709F489C070F480919F
:102200005B038C60CA30ECE5DE0709F46BC008F4B0
:1022100078C080915B038E7F65C0CE308CE5D80797
:1022200009F479C080915B038B7FCF30DC4508F4E3
:1022300059C080915B038F7E55C0CB3FECE5DE0734
:1022400009F457C030F5C3318CE5D80709F46FC0E5
:1022500078F4C131ECE5DE0709F465C0C231DC4534
:1022600009F0A8CF0E94CB1680915B038F773AC00C
:10227000C5318CE5D80709F462C008F476C08091B6
:102280005C038160CA3FDC4509F094CF80935C0316
:1022900091CFCF3FFCE5DF0709F44DC088F4809172
:1022A0005C038D7FCD3F9CE5D90781F380915C0372
:1022B0008E7FCE3FDC4550F380915C038360E6CF98
:1022C000C130FDE5DF0709F459C008F444C080E0DF
:1022D000C230DD4509F06ECF0E94F61D6BCF8091B4
:1022E0005B03816080935B0365CF80915B038460B7
:1022F000F9CF80915C038260C9CF80915B038064D9
:10230000F1CF0E94CB1680915B038068EBCF809168
:102310005B038D7FE7CF80915B03877FE3CF809165
:102320005B038F7DDFCF80915B038F7BDBCF809161
:102330005B03837FD7CF80915C038C7FA7CF809195
:102340005B0382FB992790F921E0922790FB82F9A9
:1023500090FB83F9C7CF80915C03982F9095917083
:102360008E7F892B90FB81F991CF0E94CB169091A3
:102370005B03892F97FB87F98058B4CF81E0ACCFFE
:1023800081E021CFCF93DF93EB0186319C4511F59E
:102390000E94481C9A81992399F08A7A91E009F465
:1023A00090E090932E02811109C089E20E94231CC3
:1023B0000E94941C80E0DF91CF91089585E3F6CFD1
:1023C00080912E02811104C089E20E942A1CF0CF64
:1023D00085E3FBCF81E0EFCF90933402809333020B
:1023E0000895E0913302F0913402309721F001908A
:1023F000F081E02D099480E00895E0913302F0919E
:102400003402309799F020912A01222359F020912B
:102410005B0327FF07C0DC012C9111962C931197C9
:1024200025E02C930280F381E02D09940895E0913A
:102430003302F0913402309739F022E0DC012C9322
:102440000480F581E02D09940895209131023091A6
:1024500032022817390771F09093320280933102CB
:10246000E0913302F0913402309721F00680F78139
:10247000E02D0994089520912F0230913002281701
:10248000390771F09093300280932F02E09133026C
:10249000F0913402309721F00084F185E02D099409
:1024A000089585B7806885BF85B7806885BF089522
:1024B000089508950C9458120C9427030E94511209
:1024C0000E9459120C945A1281E008950C946412DF
:1024D0000E94521F0E9415060E9409200E94580E59
:1024E0000E94E50C0C945C129F92AF92BF92CF9227
:1024F000DF92EF92FF920F931F93CF93DF93CDB7AD
:10250000DEB72A970FB6F894DEBF0FBECDBF0E948C
:102510007D060E946612882309F474C056E3A52E36
:1025200052E0B52E10E000E0902E802F0E940706AA
:102530006C01F501E190F1905F01E816F90609F4EC
:102540005BC08091D80281FD0E94100697012C2566
:102550003D2580E0EE24E394F12CA9014E215F217A
:10256000452B09F443C08E839F82CE20DF2081E07B
:10257000CD2809F480E088870E945B1F8160782F56
:102580009A8789874E815F8168858A850E94251395
:10259000000F111FF801EA5CFD4F80819181E82650
:1025A000F926F182E0820E94230D0E94B40F0E945E
:1025B00098220E94F111909135028917A1F10E9491
:1025C000F111809335022A960FB6F894DEBF0FBE44
:1025D000CDBFDF91CF911F910F91FF90EF90DF90D2
:1025E000CF90BF90AF909F900C9494038F5FEE0CB0
:1025F000FF1C8F3009F0B1CF0F5F1F4F0530110561
:1026000009F092CF8FEF89838A831B820E945B1F20
:102610008160782F9D838C8349815A816B818D8164
:102620000E942513C0CF2A960FB6F894DEBF0FBEC6
:10263000CDBFDF91CF911F910F91FF90EF90DF9071
:10264000CF90BF90AF909F900895CF93DF93CDB779
:10265000DEB72B970FB6F894DEBF0FBECDBF4F830A
:10266000588769877A878B871E821D8285E0FE01E5
:102670003796DE01119601900D928A95E1F7498116
:102680005A816B817C818D819E812B960FB6F89447
:10269000DEBF0FBECDBFDF91CF910C944119FC017D
:1026A000808191810C94F51BCF93C82F882309F466
:1026B0008BC08238C1F40E94F11181FD85C089E38D
:1026C0000E94231C0E94941C2FEF81EE94E0215065
:1026D00080409040E1F700C0000089E30E942A1C7E
:1026E000CF910C94941C8338A1F40E94F11180FDC9
:1026F0006BC083E50E94231C0E94941C2FEF81EE87
:1027000094E0215080409040E1F700C0000083E554
:10271000E5CF8438A1F40E94F11182FD55C087E411
:102720000E94231C0E94941C2FEF81EE94E0215004
:1027300080409040E1F700C0000087E4CFCF8CEFED
:102740008C0F813A90F46C2F8091160190911701B3
:102750000E940F1E882329F08C2F0E942A1C0E94A1
:10276000941C8C2F0E94231CBBCF80E28C0F8830DE
:1027700048F4C77081E001C0880FCA95EAF70E944B
:102780004B1CAECFEBE5EC0FE33040F4F0E0E75349
:10279000FE4F808190E0CF910C942512E8E5EC0F7C
:1027A000E73150F4F0E0EE0FFF1FE556FE4F808159
:1027B0009181CF910C943B12C03F30F08C2F0E943E
:1027C000A621CF910C948D22CF910895882309F4EE
:1027D00052C0823871F40E94F11181FF4CC089E32C
:1027E0000E94231C0E94941C89E30E942A1C0C94C2
:1027F000941C833859F40E94F11180FF3CC083E59A
:102800000E94231C0E94941C83E5EFCF843859F466
:102810000E94F11182FF2FC087E40E94231C0E94B6
:10282000941C87E4E2CF9CEF980F913AF0F290E28B
:10283000980F983050F4877091E001C0990F8A95F5
:10284000EAF7892F0E94511CD2CF9BE5980F933055
:1028500020F490E080E00C94251298E5980F9731D1
:1028600020F490E080E00C943B12803F20F00E9426
:102870000E220C948D220895CF93C82F0E945413DA
:10288000C93349F42FEF87EE93E021508040904008
:10289000E1F700C000008C2FCF910C94E613882341
:1028A00021F00E944B1C0C94941C0895882321F065
:1028B0000E94511C0C94941C0895BF92CF92DF92F9
:1028C000EF92FF920F931F93CF93DF936C01D62F5C
:1028D000C72FFC01058102950F70128111110E9412
:1028E000681C0E94411CE82E882391F01123D1F02E
:1028F0008C2F807F803421F080E28D0F883090F023
:1029000082E00E94DF1C0E94411C91E0E82EE92633
:10291000BC2EB2949FE0B922EB2DF0E0E65EF34DC1
:102920000C940C2BE12CF4CF0C2F0F70C07F11F006
:102930000295007F1123A9F0002359F080E28D0F4A
:10294000883010F0D11109C0802F0E944B1C0E94CA
:10295000941C8D2F0E94541314C0802F0E945B1C66
:10296000F6CF8D2F0E94E613002359F080E28D0FE1
:10297000883010F0D1112CC0802F0E94511C0E9471
:10298000941C2B2D2850330B2430310520F40E9449
:10299000F1110E949403EE2009F49EC10E943D1C97
:1029A00080FD9AC1F60112820E94371C0E94C31A50
:1029B000C6010E948D160E94371CDF91CF911F9196
:1029C0000F91FF90EF90DF90CF90BF900C94E41A9E
:1029D000802F0E94611CD3CFFC2FFF70FF2EC07F81
:1029E000C03219F0F29480EFF822DD2369F0D13083
:1029F00049F1112391F1002351F1F601858180FF06
:102A0000A8CF8F70858323C0112381F0011106C0E8
:102A10000E947B1C8F290E944F14B3CF0130C1F755
:102A20000E947B1C8F290E94811CABCF011106C024
:102A30000E948A1C8F2D0E945614A3CF013009F4E6
:102A4000A0CFF6CF112329F0033008F09ACF8F2DB5
:102A5000E2CF023008F095CFEDCF002359F3D93300
:102A600049F4FFEF27EE33E0F15020403040E1F72A
:102A700000C000008D2F0E94E61383CF8C2F869517
:102A80008695837069F0813009F07BCF8D2F9C2F64
:102A90009370111102C090E080E00E943B1271CF50
:102AA0008D2F9C2F9370111102C090E080E00E9446
:102AB000251267CF8D2F112329F00E94A6210E9495
:102AC0008D225FCF0E940E22FACF8C2F837009F0E7
:102AD00041C0111156CF4D2F429546954770440F76
:102AE000440F0D2F0F7010E030E020E0042E04C0E2
:102AF000000F111F221F331F0A94D2F760E070E00D
:102B0000CB01D4FF0FC06FE070E080E090E004C024
:102B1000660F771F881F991F4A95D2F760957095A9
:102B200080959095C695C695C370602B712B822BAE
:102B3000932BC23049F058F4C13019F00E94771A33
:102B400020CF0E94651A1DCF0E94891A1ACF0E94B9
:102B5000631A17CF8695112311F08C2F817088236B
:102B600009F40FCF4D2F429546954770440F440FFF
:102B70000D2F0F7010E030E020E0042E04C0000F95
:102B8000111F221F331F0A94D2F760E070E0CB01BF
:102B9000D4FF0FC06FE070E080E090E004C0660FEB
:102BA000771F881F991F4A95D2F760957095809579
:102BB0009095C695C695C370602B712B822B932B75
:102BC000C23049F058F4C13019F00E943A1BD9CEF6
:102BD0000E94281BD6CE0E944C1BD3CE0E949D1A69
:102BE000D0CECF70112329F08C2F0E94C31A8D2FC5
:102BF00012CF8D2F0E9456148C2F0E94E41AC1CE42
:102C0000D23F89F160F4D03FC9F0D13F29F11123BF
:102C100009F442C001119DCE8C2F8F7121C0D33F8A
:102C200039F1D43FA1F7112369F1CF718C2F0E94A4
:102C3000C31A63E08C2F0E94CA1CA3CE112341F05B
:102C4000023008F09ECE8C2F8F710E94071B99CE08
:102C5000033008F096CEF7CF8C2F8F71112369F2D5
:102C60000E94C31A8ECE8C2F8F711123C9F3C5CF4A
:102C7000112329F08C2F8F710E94AE1A82CE0E94F0
:102C8000A91A7FCE81E00E94DF1C023008F479CEC1
:102C900082E00E94DF1C75CE002359F0D93309F081
:102CA000E9CE8FEF97EEE3E081509040E040E1F70E
:102CB000DFCE8C2F8F71A1CF4C2F4F706D2FC6019F
:102CC0000E94F4030E94DB195CCE4C2F4F706D2FD5
:102CD000C6010E94F70355CEDF91CF911F910F914E
:102CE000FF90EF90DF90CF90BF9008950F931F93C8
:102CF000CF93DF93EC01688179818A810E94FF1B69
:102D00008C010E945E1B0E94621AB801CE01DF9105
:102D1000CF911F910F910C945D14CF93DF93EC0131
:102D20008B819C81892B29F08881998189238F3F10
:102D300059F4DF91CF910895CE010E947616CE010D
:102D4000DF91CF910C947803CE010E94AC038111E6
:102D5000F3CF0E94411C882361F38A81882349F3C1
:102D600082E0DF91CF910C94DF1C0E94681C0E94CE
:102D7000781C0E94941C0E94B2230E948D2290E035
:102D800080E00E94251290E080E00C943B120E94AB
:102D9000311C0C94B5160E94581C0C94C716E92FD0
:102DA000E295EF70E250EE3070F4F0E0E65DF34D46
:102DB0000C940C2B803F19F020F4883E20F481E025
:102DC0000895843FE1F380E00895883EC0F3813F99
:102DD000D1F7F5CF93FB882780F908950E94F51B62
:102DE0000C94CF16CF93DF9300D000D00F92CDB7C5
:102DF000DEB70F900F900F900F900F90DF91CF9153
:102E00000895CF93DF9300D000D000D0CDB7DEB7C8
:102E100026960FB6F894DEBF0FBECDBFDF91CF91DF
:102E200008951F93CF93DF93C091410216E08091E4
:102E300042028C1304C0DF91CF911F910895D0E01E
:102E40001C9FF0011D9FF00D1124ED5BFD4F408193
:102E5000518162817381848195810E94011721963D
:102E6000C770E5CF40917302509174026091750272
:102E70007091760280917702909178020C940117FC
:102E80001F93CF93DF9380917802807FA9F4809184
:102E90007502882389F080914102C09142026091BD
:102EA000730270917402A0917602B0917702D62FCE
:102EB000D72316E0C81304C0DF91CF911F91089566
:102EC00090E0109711F0DF3F19F401968770F2CF70
:102ED000189F9001199F300D1124F901ED5BFD4FF2
:102EE00041814713F2CF40814613EFCF4281411118
:102EF000ECCF438154814A1B5B0B483C510528F7BA
:102F0000809178028F70806180937802F901E85B8C
:102F1000FD4F80818F708061808383E792E00E9403
:102F20008D16DF91CF911F910C941117AF92BF9224
:102F3000CF92DF92EF92FF920F931F93CF93DF9385
:102F4000CDB7DEB761970FB6F894DEBF0FBECDBF29
:102F50008C0185E0F801DE011D9601900D928A95A5
:102F6000E1F7F80140815181E28083E7C82E82E0D9
:102F7000D82E60917602709177026115710509F47F
:102F800061C19091730220917402892F82238F3F37
:102F900009F458C1A380B480F0907502F501E61BD6
:102FA000F70BFF2009F4FCC080917802382F307FA6
:102FB000E83CF10508F0B2C0311179C0FE2C2513B0
:102FC00023C0941321C0E1101FC08F7080618093D3
:102FD00078020E943217C6010E948D1680917802F5
:102FE000F80185838F2D61960FB6F894DEBF0FBE72
:102FF000CDBFDF91CF911F910F91FF90EF90DF90A8
:10300000CF90BF90AF900895AB2829F0842F8523EF
:103010008F3F09F033C180E0F82FF170DF2E80FF81
:103020003CC0809141022091420236E0821315C0DB
:103030004D875E878D859E850E94F51B292F2295E1
:103040002F702230F0F0243018F59F70F1F0F80165
:103050009581907FD1F4D12C1EC090E0389FF00173
:10306000399FF00D1124ED5BFD4F6181651306C0A2
:103070006081641303C062816E110FC00196877076
:10308000D5CF9F7011F0882331F3805E883018F31C
:10309000C8010E948D16FD2CA5CFEE2009F4A2CF09
:1030A00080917802816080937802F12C9BCF251368
:1030B00006C0941304C0F801EE2009F48DC04D87BA
:1030C0005E878D859E850E94EE16882319F1EE207D
:1030D00009F180917802803270F020917302309172
:1030E000740238872F831986BB86AA868C87CE0107
:1030F00007960E948D1686E0F801A3E7B2E00190E2
:103100000D928A95E1F70E9440170E943217FF2422
:10311000F39468CFC8010E948D16F9CF311113C006
:103120007A2DB98AA88A6E2D89890E94F21683E7C2
:1031300092E00E948D1686E0F60111928A95E9F7D9
:103140000E943217B2CF25130FC094130DC0E110A7
:103150000BC0F8018583C8010E948D1686E0F60138
:1031600011928A95E9F73ECF4D875E878D859E85C2
:103170000E94EE16882371F2EE2061F280917802AF
:10318000803208F4B8CF20917302309174023A83F0
:1031900029831B82BD82AC828E83CE010196A9CF8A
:1031A000E83CF10508F041C0FE2CEE2009F4B2CF56
:1031B00025132AC0941328C08091780280FD1BC07B
:1031C000982F907FC1F0F8018583903F31F0982FC0
:1031D000907F905F8F70892B8583C8010E948D1628
:1031E00086E0F801A3E7B2E001900D928A95E1F73D
:1031F0000E943217F7CE86E0F801A3E7B2E0019013
:103200000D928A95E1F7EECE4D875E878D859E857E
:103210000E94EE1681116FCF8091780281608093B9
:103220007802C8010E948D16DDCE7A2DB98AA88A4F
:103230006E2D89890E94F21686E0F60111928A9518
:10324000E9F7D6CFEE2009F465CF4D875E878D85EF
:103250009E850E94EE16F82E882309F45BCF86E047
:10326000F801A3E7B2E001900D928A95E1F783E7B8
:1032700092E00E944F130E944017BACF81E08E2542
:10328000CBCE1F93CF93DF93CDB7DEB72C970FB67E
:10329000F894DEBF0FBECDBF4F83588769877A870A
:1032A0008B879C87CE0107960E949617882369F02A
:1032B0008A859B85892B39F04F815885842F8523FA
:1032C0008F3F09F071C016E05FC086E0FE013796BF
:1032D000DE01119601900D928A95E1F78A859B8512
:1032E000892B89F38F81988589238F3F61F3209102
:1032F000420230E0C901019687709927409141024E
:103300004817190671F40E94CB16109242021092CF
:10331000410286E0E3E7F2E0DF011D928A95E9F7DA
:10332000D2CF96E0929FD001939FB00D1124AD5B58
:10333000BD4FFE01319601900D929A95E1F7809371
:1033400042020E941117BFCF819FC00111248D5BE3
:103350009D4F0E9496178823E9F0E09141021E9F3D
:10336000F0011124ED5BFD4F408151816281738139
:10337000848195810E9401178091410290E001961D
:103380008770992780934102809141029091420277
:103390008913DACF2C960FB6F894DEBF0FBECDBFDF
:1033A000DF91CF911F91089569857A858B859C85E2
:1033B0000E94011788CFEF92FF920F931F93CF9334
:1033C000DF938C01892B81F0F12CEE24E394E8014A
:1033D0002196F8018491843770F4843008F05FC03E
:1033E0008130B1F08230A1F1DF91CF911F910F9127
:1033F000FF90EF900895853709F44CC008F43DC064
:103400009CE7980F903780F78F770E94E61349C0AA
:103410000E5F1F4FFE01849190E2980F983060F488
:103420008770FE2D01C0FF0F8A95EAF78F2F0E944B
:103430006B1C0E94941C02C00E9454138F2D81505B
:1034400030F2EFE9FFE03197F1F700C00000F7CF6D
:103450000E5F1F4FFE01849190E2980F983050F458
:103460008770FE2D01C0FF0F8A95EAF78F2F0E940B
:10347000711CDFCF0E94E613E1CF0E5F1F4FFE01EC
:10348000C491C150D8F28FE99FE00197F1F700C0D5
:103490000000F7CF0E5F1F4FFE01F490CFCF0E94C8
:1034A00054138E01CBCF08950C94531A0E94541AD2
:1034B0006093AF027093B0028093B1029093B20216
:1034C0000C94B51608950C94561A0F931F930091FF
:1034D000AF021091B0022091B1023091B202602B84
:1034E000712B822B932B1F910F910C94561A0F93D3
:1034F0001F930091AF021091B0022091B102309160
:10350000B20260237123822393231F910F910C94A5
:10351000561A0F931F930091AF021091B0022091A1
:10352000B1023091B20260277127822793271F9141
:103530000F910C94561A0C9409030E949B1A6093E5
:10354000AB027093AC028093AD029093AE020C94E8
:10355000B51660E070E0CB010C949D1A0F931F9399
:1035600041E050E060E070E08A019B0104C0000F80
:10357000111F221F331F8A95D2F7C901B8011F916D
:103580000F910C949D1A0F931F9341E050E060E05F
:1035900070E004C0440F551F661F771F8A95D2F74D
:1035A0008091AB029091AC02A091AD02B091AE02BD
:1035B0008A019B01082B192B2A2B3B2BC901B8012F
:1035C0001F910F910C949D1A0F931F9341E050E0AF
:1035D00060E070E004C0440F551F661F771F8A9596
:1035E000D2F7CB01BA0160957095809590950091C6
:1035F000AB021091AC022091AD023091AE0260237B
:103600007123822393231F910F910C949D1A0F9382
:103610001F9341E050E060E070E004C0440F551F8C
:10362000661F771F8A95D2F78091AB029091AC020A
:10363000A091AD02B091AE028A019B010827192723
:103640002A273B27C901B8011F910F910C949D1A9D
:103650000F931F930091AB021091AC022091AD0229
:103660003091AE02602B712B822B932B1F910F9107
:103670000C949D1A0F931F930091AB021091AC0212
:103680002091AD023091AE026023712382239323F7
:103690001F910F910C949D1A0F931F930091AB02F1
:1036A0001091AC022091AD023091AE0260277127DB
:1036B000822793271F910F910C949D1A08952FE054
:1036C000929F800D1124982F977041E001C0440F04
:1036D0009A95EAF786958695869595E0899FF001FB
:1036E0001124E758FD4F90E080E070E05191DF0138
:1036F00011979B01082E02C0369527950A94E2F790
:10370000217021952527242325272C930196853088
:10371000910561F708952FE0929F800D1124982F55
:10372000977086958695869525E0829FF0011124F5
:10373000E758FD4F50E040E080E0219130E0092E55
:1037400002C0369527950A94E2F721703327042E9C
:1037500001C0220F0A94EAF7822B4F5F5F4F45307A
:10376000510559F70895BF92CF92DF92EF92FF92E1
:103770000F931F93CF93DF938C01C090AB02D09037
:10378000AC02E090AD02F090AE028091AF02909159
:10379000B002A091B102B091B202C82AD92AEA2A95
:1037A000FB2ACFE1D0E0BC2ED701C6010C2E04C00D
:1037B000B695A795979587950A94D2F780FD0EC088
:1037C000219788F7B12C8B2DDF91CF911F910F910D
:1037D000FF90EF90DF90CF90BF900895B8018C2FAD
:1037E0000E941404019761F3EECFCF93DF93EC01B5
:1037F0000E94B31BBE01DF91CF910C9414041F9360
:10380000CF93DF93EB0190914002992331F0CB01EC
:10381000DF91CF911F910C94F51B882379F0CB0198
:103820000E94B31B182F682FCE010E945F1BBE01A0
:10383000812FDF91CF911F910C941404CB010E9432
:103840008B1B182FF4CF682F8091160190911701D0
:103850000C948F1E682F80911601909117010C9483
:103860009A1E80911601909117010C94A51E8091CB
:10387000B30285958595859508958091B3028770EB
:1038800008959091B302977081E009F480E0089563
:103890008091D70208959091D702892B8093D70207
:1038A000089580959091D70298239093D702089518
:1038B0001092D70208959091D602892B8093D60258
:1038C000089580959091D60298239093D6020895FA
:1038D0001092D60208959091D502892B8093D5023B
:1038E000089580959091D50298239093D5020895DC
:1038F0001092D50208958091B402089508950C9411
:103900007E1C9091B402981721F08093B4020C941D
:103910007F1C08958091B402882329F01092B4028C
:1039200080E00C947F1C0895E0911601F09117013E
:103930008091D7028083E0911601F0911701808178
:103940009091D602892B8083E0911601F0911701A6
:1039500080819091D502892B80839091B402992324
:1039600081F0E0911601F09117018081892B80830D
:1039700080911601909117010E94FB1D81110E94F8
:103980008A1C80911601909117010C94FD110895E5
:103990000C94C71C98E0899F90011124622B6093BE
:1039A000B3020E94C31A8091B302859585958595CF
:1039B0000C94C81C1092B30280E00C94C81C909127
:1039C000B302809589238093B302282F277071F466
:1039D000282F082E000C330B9217130639F085950B
:1039E000859585950E94E41A0C94DA1C0895CF926F
:1039F000DF92EF92FF926C01EE24FF2420E0C114CD
:103A0000D104E104F10419F0C701B60120E1C72E89
:103A1000D82EE92EFF24C114D104E104F10419F0D9
:103A2000285FC701B6016B017C0154E0F694E7946E
:103A3000D794C7945A95D1F7C114D104E104F10485
:103A400019F02C5FC701B6016B017C0142E0F694CE
:103A5000E794D794C7944A95D1F7C114D104E104EF
:103A6000F10419F02E5FC701B601969587957795F9
:103A70006795672B682B692B09F02F5F822FFF90CA
:103A8000EF90DF90CF90089590E080E00E94A32B0C
:103A900021E08C3E9E4F09F020E0822F089582E0C5
:103AA00090E00C94952B682F82E090E00C94A92B69
:103AB00083E090E00C94952B682F83E090E00C94C9
:103AC000A92BCF9384E090E00E94952BC82F81E230
:103AD00090E00E94952B982F8C2FCF910895CF9333
:103AE000C92F682F84E090E00E94A92B6C2F81E2FF
:103AF00090E0CF910C94A92B86E090E00C94952B4C
:103B0000682F86E090E00C94A92BAB01BC018FE0FC
:103B100090E00C94BB2BAB01BC0183E190E00C94D2
:103B2000BB2B60E070E0CB010C948B1D60E070E07B
:103B3000CB010E94851D0C94911D6CEE7EEF90E0F0
:103B400080E00E94C72B60E082E090E00E94A92BF9
:103B500060E083E090E00E94A92B1092AF021092E7
:103B6000B0021092B1021092B20260E084E090E0E4
:103B70000E94A92B60E081E290E00E94A92B60E006
:103B800085E090E00E94A92B60E086E090E00E9432
:103B9000A92B6FEF87E090E00E94A92B40E050E056
:103BA000BA0188E090E00E94BB2B60E08DE090E0DD
:103BB0000E94A92B40E050E0BA0188E190E00E9409
:103BC000BB2B60E087E190E00E94A92B40E050E031
:103BD000BA018CE190E00E94BB2B60E080E290E0B3
:103BE0000E94A92B0C94961D0C949D1D682F8EE0AD
:103BF00090E00C94A92BFC01329680912A01882335
:103C000021F080915B039EE187FF96E080E0915078
:103C100008F4089521912223D1F38F5FF8CF662312
:103C200001F120912A012223F1F020915B0327FF6B
:103C30001AC0462F4695469546954E3190F46770CA
:103C400021E030E002C0220F331F6A95E2F7840FB3
:103C5000911DFC01828190E02823392381E0232BF0
:103C600069F480E00895FC013296089621912617A8
:103C700021F0E817F907D1F7F4CF81E008959C010E
:103C8000FC0132969FEF80E04191461751F09F3F33
:103C900019F4411101C0982F8F5F8630A9F79F3F1B
:103CA00009F40895290F311D97FD3A95F9016283B2
:103CB0000895FC01329608962191261303C0DF0176
:103CC00011971C92E817F907B9F70895E62FE695C2
:103CD000E695E695EE3168F4E80FF92FF11D67706F
:103CE00021E030E001C0220F6A95EAF78281822B41
:103CF00082830895E62FE695E695E695EE3170F419
:103D0000E80FF92FF11D677021E030E001C0220FAC
:103D10006A95EAF7209582812823228308952091CD
:103D20002A01222329F020915B0327FD0C94661EB3
:103D30000C943F1E20912A01222329F020915B033D
:103D400027FD0C947A1E0C94591EFC01329680912A
:103D50002A01882351F080915B0387FF06C08EE122
:103D6000DF011D928A95E9F7089586E0F9CF08955D
:103D700008950C94B81E0E94B91E8091610384308E
:103D800009F43CC01092D90288E190E020E40FB61B
:103D9000F894A895809360000FBE2093600080E0A7
:103DA0000E94560F80E00E9494030E94200D809193
:103DB000DA0281110AC081E08093DA028091210346
:103DC00081708093DB020E94530C0E94B91E83B75E
:103DD000817F846083BF83B7816083BF7894889537
:103DE00083B78E7F83BF0FB6F894A895809160004B
:103DF000886180936000109260000FBE089508955E
:103E0000CF930E94B71E0E947D060E94FF1EC0E055
:103E10008C2F0E940706892B31F4CF5FC530C1F784
:103E200080E0CF91089581E0FCCF08950C94151F98
:103E30000E94CB160E94580E0E94F1110E9494031A
:103E40001092DA028091DB0281110E94180D0E940B
:103E5000650C0C94161F1F921FB61F9211248F938E
:103E60009F93AF93BF938091D902811113C080912A
:103E7000570390915803A0915903B0915A0341966A
:103E8000A11DB11D8093570390935803A09359032C
:103E9000B0935A03BF91AF919F918F911F901FBE16
:103EA0001F90189582E084BD93E095BD9AEF97BD71
:103EB00080936E0008952FB7F894809157039091E6
:103EC0005803A0915903B0915A032FBF08959C0144
:103ED0004FB7F8948091570390915803A0915903DC
:103EE000B0915A034FBF821B930B089578941F9291
:103EF0001FB61F9211248F939F93AF93BF9380910E
:103F0000570390915803A0915903B0915A03019619
:103F1000A11DB11D8093570390935803A09359039B
:103F2000B0935A03BF91AF919F918F911F901FBE85
:103F30001F90189581E08093E00080E28093D80084
:103F40001092C9008FE19EE40197F1F700C00000D4
:103F500087E090EBDC0180936A0390936B03A0935E
:103F60006C03B0936D0388E19CE00FB6F894A895BC
:103F7000809360000FBE90936000FFCFAF92BF921E
:103F8000CF92DF92EF92FF920F931F93CF93C0E0F7
:103F9000CC24C394D12CE82EF12C8C2F0E94070640
:103FA0005C0110E000E0C601002E02C0880F991FDE
:103FB0000A94E2F78A219B21892B99F40F5F1F4F06
:103FC0000F30110581F7CF5FC53039F780E0CF9111
:103FD0001F910F91FF90EF90DF90CF90BF90AF9027
:103FE0000895602F7C2F80E00E94F803E816F90600
:103FF00029F781E0ECCFCF93C82F8CE20E94BE1F3F
:10400000882321F08C2FCF910C94BE1F80E0CF919C
:104010000895CF930E94441D811102C00E94F41D97
:10402000C5E608C00E947D068FE39CE90197F1F781
:1040300000C00000C150B1F789E20E94FB1F81114E
:1040400000C18AE20E94FB1F81110E94F41D85E0DD
:104050000E94FB1F81110E949A1F0E944F1D809396
:10406000D80287E00E94FB1F882371F08BE10E9439
:10407000FB1F882309F4C2C09091D802892F8D7F3D
:1040800091FF82608093D8028091D8020E94531DD4
:104090000E94611D90935C0380935B0380EE0E94FD
:1040A000FB1F882341F090915B03892F8E7F90FF47
:1040B000816080935B0389E30E94FB1F882341F0AA
:1040C00090915B03892F8D7F91FF826080935B03CA
:1040D00082EE0E94FB1F882341F090915B03892FA1
:1040E0008B7F92FF846080935B0386EE0E94FB1FB0
:1040F000882341F090915B03892F877F93FF88602D
:1041000080935B0383EE0E94FB1F882341F0909114
:104110005B03892F8F7E94FF806180935B0385E32F
:104120000E94FB1F882341F090915B03892F8F7DB4
:1041300095FF806280935B0381E30E94FB1F8823CD
:1041400041F090915B03892F8F7B96FF8064809371
:104150005B0381E10E94FB1F882341F090915B0388
:10416000892F97FB87F9805880935B0380915B03CD
:1041700090915C030E946F1D87E20E94FB1FC82F75
:104180008EE10E94FB1F8111C2608FE10E94FB1F24
:104190008111C46080E20E94FB1F8111C86081E22E
:1041A0000E94FB1F8111C06182E20E94FB1F8111EE
:1041B000C06283E20E94FB1F8111C06484E20E94FE
:1041C000FB1F8823C1F1C0688C2F0E945C1D6C2FDF
:1041D00070E090E080E00E94631A8FE00E94FB1F75
:1041E000882319F081E00E94F61D85E10E94FB1FE3
:1041F000882339F180E0CF910C94F61D8EE00E9467
:10420000FB1F882339F09091D802892F8B7F92FF72
:10421000846038CF80E10E94FB1F9091D8028823F0
:1042200029F0892F877F93FF88602CCF892F8E7F7D
:1042300090FF816027CFC111C7CF0E94581D682F02
:10424000C7CFCF9108958091E30280FF12C06091A3
:104250001D0185E0689FB0011124759567957595DE
:10426000679560387105A8F561157105A1F1862F74
:10427000089581FF09C060911D0185E0689FB0012C
:10428000112475956795EDCF60911D0182FD0AC0DF
:104290008091E2028823D1F090911C0160911D0170
:1042A000891728F085E0689FB0011124DACF869F36
:1042B000B001112485E0869F9001879F300D112465
:1042C000692F70E0C9010E94D62ACBCF65E070E06B
:1042D000CECF8FE7089581E008958091E30280FFBB
:1042E0000CC06091190170E075956795759567959B
:1042F0006115710549F1862F089581FF06C060910F
:10430000190170E075956795F3CF6091190182FDF1
:104310000BC09091E2029923A1F060911801809165
:104320001901961738F0682F70E06038710500F3B6
:104330008FE70895899FC001112470E00E94D62A5A
:10434000F4CF61E070E0D7CF81E00895803F31F491
:104350000E94232181958093E7020895813F19F4FB
:104360000E942321F8CF823F31F40E9423218195BE
:104370008093E6020895833F19F40E942321F8CF29
:10438000893F29F40E946D218093E80208958A3FB5
:1043900021F40E946D218195F7CF8B3F31F40E946B
:1043A0006D2181958093E90208958C3F19F40E9454
:1043B0006D21F8CF843F31F48091E50281608093D4
:1043C000E5020895853F21F48091E5028260F7CFF0
:1043D000863F21F48091E5028460F1CF873F21F48C
:1043E0008091E5028860EBCF883F21F48091E5025F
:1043F0008061E5CF8D3F31F48091E302816080934D
:10440000E30208958E3F21F48091E3028260F7CFAA
:104410008F3FB9F78091E3028460F1CF9091E6027B
:10442000803F41F48091E70287FD1092E7029923D3
:1044300071F00895813F29F48091E7021816ACF3DA
:10444000F6CF823F81F497FFF2CF1092E60280917F
:10445000E7029091E802892B9091E902892B49F7B4
:104460001092E2020895833F19F4191674F3DFCF16
:10447000893F39F48091E8021816CCF61092E802D0
:10448000D6CF8A3F29F48091E80287FFD0CFF6CFBC
:104490008B3F39F48091E90287FFC9CF1092E9027E
:1044A000C6CF8C3F29F48091E9021816BCF3BFCF28
:1044B000843F31F48091E5028E7F8093E502B7CF8F
:1044C000853F21F48091E5028D7FF7CF863F21F46F
:1044D0008091E5028B7FF1CF873F21F48091E50247
:1044E000877FEBCF883F21F48091E5028F7EE5CF77
:1044F0008D3F31F48091E3028E7F8093E30297CF6A
:104500008E3F21F48091E3028D7FF7CF8F3F09F03A
:104510008ECF8091E3028B7FF0CF84EE92E00E94F9
:1045200017120E945B1F9093E1028093E0020895AE
:10453000CF93DF9300D000D000D0CDB7DEB786E0B8
:10454000E4EEF2E0DE01119601900D928A95E1F71A
:104550008091E6029091E702892B81F08091DE0242
:104560009091DF020E94671FAC019091E2029923B3
:1045700031F180911E018417150670F18091E802D7
:104580009091E902892B91F08091DC029091DD02FB
:104590000E94671FAC019091E202992309F478C050
:1045A00080911A018417150608F480C026960FB66C
:1045B000F894DEBF0FBECDBFDF91CF91089520915B
:1045C0001F018AE0289F9001112424173507B0F6B7
:1045D0009F5F9093E20202C09F3FD1F71092E802E2
:1045E0001092E9028091E602181624F40E94232119
:1045F0008093E6028091E60287FF05C00E94232196
:1046000081958093E6028091E702181624F40E94B7
:1046100023218093E7028091E70287FF05C00E9473
:10462000232181958093E7023091E6023323A1F0A4
:104630002091E702222381F045EB3403C0011124CD
:104640009923F1F09093E60245EB240390011124A5
:104650003323D1F03093E7020E948D228091E00253
:104660009091E1029093DF028093DE0286E0FE01EA
:104670003196A4EEB2E001900D928A95E1F77ECFDB
:1046800081E08093E602E0CF81E08093E702E4CF0F
:1046900020911B018AE0289F9001112424173507DF
:1046A00008F084CF9F5F9093E20202C09F3FD1F752
:1046B0001092E6021092E7028091E802181624F4A4
:1046C0000E946D218093E8028091E80287FF05C077
:1046D0000E946D2181958093E8028091E90218166D
:1046E00024F40E946D218093E9028091E90287FF02
:1046F00005C00E946D2181958093E9023091E80206
:104700003323A1F02091E902222381F045EB340309
:10471000C00111249923F1F09093E80245EB2403A2
:10472000900111243323D1F03093E9020E948D22AD
:104730008091E0029091E1029093DD028093DC028F
:1047400086E0FE013196A4EEB2E001900D928A95CA
:10475000E1F72CCF81E08093E802E0CF81E0809305
:10476000E902E4CF86E0E4EEF2E0DF011D928A95F3
:10477000E9F71092E2021092E302089580910A0391
:104780000895CF93DF9300D00F92CDB7DEB790910D
:104790006103943019F589837B836A8382E0809377
:1047A000E9008FEF9091E800815095FD06C095EDEE
:1047B0009A95F1F700008111F5CF8091E80085FF0F
:1047C0000DC050E040E063E070E0CE0101960E9431
:1047D00015268091E8008E778093E8000F900F9067
:1047E0000F90DF91CF910895CF93DF93EC010E945A
:1047F000F825823011F0843031F4BE0184E0DF917D
:10480000CF910C94C123DF91CF910895BC0183E037
:104810000C94C123CF93DF93EC010E94F8258230E2
:1048200011F08430F9F482E08093E9008FEF9091E9
:10483000E800815095FD06C095ED9A95F1F70000CE
:104840008111F5CF8091E80085FF0CC050E040E079
:1048500066E070E0CE010E9415268091E8008E7718
:104860008093E800DF91CF910895CF93DF93EC011F
:104870000E94F825823011F08430B9F580912A0128
:104880008823B1F180915B0387FF32C060E282E050
:104890008093E9008FEF9091E800815095FD06C06C
:1048A00095ED9A95F1F700008111F5CF8091E80020
:1048B00085FF1BC080912A0170E050E040E081112B
:1048C00004C050E040E068E070E0CE010E94152690
:1048D0008091E8008E778093E80080E2FE01AAEEE6
:1048E000B2E001900D928A95E1F7DF91CF910895A2
:1048F00068E081E0CDCF80916003811109C00E9402
:10490000A5270E9402288091E20084608093E20043
:104910000895109260030895089508950C94181F47
:1049200042E061EC81E00E94212742E261EC82E0FA
:104930000C94212780916303833009F45FC030F425
:104940008130C1F1823009F49BC008958A3009F4A6
:1049500087C08B3009F46DC0893009F04EC080915A
:104960006203813209F049C0809166039091670328
:10497000029708F042C08091E800877F8093E800AA
:104980008091E80082FF35C09091F3008091F200A1
:10499000029729F48091F1008B7F813021F480917E
:1049A000F10080930A038091E8008B778093E80000
:1049B0000C94552780916203813AF9F48091E800C4
:1049C000877F8093E8008091660390916703892B2D
:1049D00061F460E28AEE92E070E00E9464268091C9
:1049E000E8008B778093E800089560E090E080E035
:1049F000F3CF809161038111C3CF08958091620349
:104A0000813AD9F78091660390916703892BA9F7C2
:104A10008091E800877F8093E8008091E80080FF24
:104A2000FCCF80912A018093F1008091E8008E777D
:104A3000BDCF80916203813201F78091660390912E
:104A40006703892BD1F68091E800877F8093E80087
:104A50000E9455278091640380932A010C94CB1601
:104A600080916203813249F68091E800877F8093CC
:104A7000E8000E9455278091650380930B030895F9
:104A800080916203813A09F0B8CF8091E800877F76
:104A90008093E8008091E80080FFFCCF80910B03B9
:104AA000C2CF84B7877F84BF0FB6F894A895809152
:104AB0006000886180936000109260000FBE80E803
:104AC00090E00FB6F89480936100909361000FBE60
:104AD0000E945E120E94A5270E9402288091E20097
:104AE00084608093E20078940E948B2A0E9468126E
:104AF00080E291E00E94EC1180916103853019F011
:104B00000E947412F9CF0E94BB1E80915F0388231C
:104B100099F30E94001F882379F30E94FF25ECCFB0
:104B20000C949225292F33272330310519F168F48D
:104B30002130310509F44AC02230310509F44BC057
:104B400090E080E030E020E028C02132310579F1AA
:104B500022323105A9F780E490E023E235E06115C7
:104B60007105D9F08CEB90E027E634E061307105F7
:104B7000A1F0E6CF99278130910599F0009741F097
:104B80008230910589F00397D9F6E2EFF3E002C095
:104B9000E6E1F4E0849190E09F01FA013183208303
:104BA0000895E4E0F4E0F6CFE8EFF3E0F3CF89E036
:104BB00090E02CE234E06115710579F389E090E032
:104BC00025E434E06130710541F3BACF82E190E031
:104BD00025E534E0E2CF8BE390E02AE134E0DDCF5D
:104BE00080916103843011F482E0089581E008959A
:104BF00080910C03811102C00C94F025089580E18E
:104C000089BD82E189BD09B400FEFDCF8091D80045
:104C10008F7D8093D8008091E00082608093E000D7
:104C20008091E00081FDFCCF0895AF92BF92CF92BA
:104C3000DF92FF920F931F93CF93DF936C01EB01F1
:104C40008A010E947427F82E811123C001151105D5
:104C500039F0F80180819181C81BD90BC80ED91E8B
:104C6000B12CA12C2097A9F08091E80085FD22C0ED
:104C70008091E8008E778093E80001151105A1F07E
:104C8000F80180819181A80EB91EB182A08285E0D1
:104C9000F82E8F2DDF91CF911F910F91FF90DF9014
:104CA000CF90BF90AF9008950E9474278823D1F2CF
:104CB000F82EEFCFF60181916F018093F1002197DB
:104CC000FFEFAF1ABF0ACECFFC018091680390912D
:104CD000690386179707A0F06115710529F4909173
:104CE000E8009E779093E80090E06115710551F41B
:104CF000911108C08091E80082FF34C080E00895DF
:104D0000BC01F2CF809161038823C1F18530C1F1EC
:104D10008091E80083FD30C08091E80082FDEACFF9
:104D20008091E80080FFE1CF8091F3002091F200B4
:104D3000382F6115710519F02830310558F091E0D0
:104D40002830310509F090E02091E8002E7720937B
:104D5000E800CBCF81918093F100615071092F5F02
:104D60003F4FE7CF80916103882341F0853041F0C8
:104D70008091E80083FFBECF81E0089582E008952E
:104D800083E00895FC018091680390916903861780
:104D90009707A0F06115710529F48091E8008E77DE
:104DA0008093E80090E06115710551F4911108C0FD
:104DB0008091E80082FF35C080E00895BC01F2CF09
:104DC000809161038823C9F18530C9F18091E800A1
:104DD00083FD31C08091E80082FDEACF8091E80038
:104DE00080FFE1CF8091F3002091F200382F611510
:104DF000710519F02830310558F091E0283031055F
:104E000009F090E08091E8008E778093E800CBCFA6
:104E100084918093F1003196615071092F5F3F4F6B
:104E2000E6CF80916103882341F0853041F0809185
:104E3000E80083FFBDCF81E0089582E0089583E01C
:104E40000895982F973028F08F708093E90081E0C3
:104E500008959093E900242F762F50E0981731F0B1
:104E60007091EC002091ED005091F00021FD02C006
:104E70009F5FE8CF3091EB003E7F3093EB003091A5
:104E8000ED003D7F3093ED003091EB0031603093C9
:104E9000EB007093EC002093ED005093F000209114
:104EA000EE0027FDE5CF80E008958091620387FF43
:104EB00013C08091E80082FF06C08091E8008B77E4
:104EC0008093E80004C0809161038111F2CF0895BE
:104ED000809161038823D9F38091E80080FFF8CFA7
:104EE0008091E8008E77ECCF2091E4003091E500CE
:104EF00095E6A9012091EC00822F817020FF06C069
:104F00008091E80080FF06C080E008952091E800CD
:104F100022FD1AC080916103882389F0853089F0D1
:104F20008091EB0085FD0FC02091E4003091E500F9
:104F300042175307F9F29150E1F684E0089582E0B8
:104F4000089583E0089581E008950E9413280E9447
:104F50001B28E0EEF0E0808181608083E8EDF0E0E6
:104F600080818F77808319BCA7EDB0E08C918E7F14
:104F70008C9380818F7E80831092600308950F93BD
:104F80001F93CF93DF930E9413280E941B28C8ED24
:104F9000D0E088818F778883888180688883888142
:104FA0008F7D888319BC1092610310925D0310926B
:104FB0005F0310925E0300EE10E0F80180818B7FAA
:104FC000808388818160888342E060E080E00E9485
:104FD0002127E1EEF0E080818E7F8083E2EEF0E039
:104FE000808181608083808188608083F8018081F6
:104FF0008E7F8083888180618883DF91CF911F912C
:105000000F910895E8EDF0E080818F7E8083E7EDD9
:10501000F0E080818160808384E082BF81E08093C2
:1050200060030C94BF27E8EDF0E080818E7F8083E1
:105030001092E20008951092DA001092E1000895B3
:105040001F920F920FB60F9211242F933F934F93FD
:105050005F936F937F938F939F93AF93BF93EF93E0
:10506000FF938091E10082FF0BC08091E20082FFFC
:1050700007C08091E1008B7F8093E1000E948A2A23
:105080008091DA0080FF19C08091D80080FF15C0A0
:105090008091DA008E7F8093DA008091D90080FFC2
:1050A00096C080E189BD82E189BD09B400FEFDCFD3
:1050B00081E0809361030E947B248091E10080FF66
:1050C00019C08091E20080FF15C08091E2008E7FC0
:1050D0008093E2008091E20080618093E200809101
:1050E000D80080628093D80019BC85E0809361036A
:1050F0000E948D248091E10084FF2BC08091E2000A
:1051000084FF27C080E189BD82E189BD89B5982FE0
:10511000917080FFFBCF8091D8008F7D8093D80065
:105120008091E1008F7E8093E1008091E2008F7E8C
:105130008093E2008091E20081608093E2008091A0
:105140005D03882309F449C084E0809361030E94D1
:105150008E248091E10083FF29C08091E20083FFCB
:1051600025C08091E100877F8093E10082E08093F9
:10517000610310925D038091E1008E7F8093E100D6
:105180008091E2008E7F8093E2008091E200806156
:105190008093E20042E060E080E00E94212780915D
:1051A000F00088608093F0000E948C24FF91EF91C2
:1051B000BF91AF919F918F917F916F915F914F912F
:1051C0003F912F910F900FBE0F901F90189519BC13
:1051D000109261030E94892470CF8091E30087FDC3
:1051E00093E090936103B3CF1F920F920FB60F928B
:1051F00011242F933F934F935F936F937F938F93DC
:105200009F93AF93BF93CF93DF93EF93FF93D0918F
:10521000E900DF708091EC00C82FC17080FDC0E80C
:105220001092E9008091F000877F8093F0007894DD
:105230000E9438291092E9008091F00088608093E4
:10524000F000CD2BCF70C093E900FF91EF91DF917B
:10525000CF91BF91AF919F918F917F916F915F910E
:105260004F913F912F910F900FBE0F901F90189567
:105270001F93CF93DF93CDB7DEB7AA970FB6F894FD
:10528000DEBF0FBECDBF82E693E02091F100FC01AE
:105290002193CF01F3E08A369F07B9F70E949A2441
:1052A0008091E80083FF1EC18091620390916303A7
:1052B0009A3008F017C1E92FF0E0E85CF34D0C9448
:1052C0000C2B803899F0823809F00CC1809166036C
:1052D0008F70873008F006C18093E9008091EB0061
:1052E00085FB882780F91092E90006C080915E0353
:1052F00090915F03911182609091E800977F909365
:10530000E8008093F1001092F1008091E8008E7720
:10531000E5C0882309F4D3C0823009F0E3C080914E
:1053200064038111D6C0809166038F702FEF280F20
:10533000263008F0D7C08093E9002091EB0020FFD1
:10534000C8C0933031F48091EB0080628093EB0011
:10535000C0C09091EB0090619093EB0021E030E0B1
:1053600001C0220F8A95EAF72093EA001092EA0022
:105370008091EB008860EACF8111B4C01091640382
:105380001F778091E3008078812B8093E3008091E8
:10539000E800877F8093E8000E9455278091E8000D
:1053A00080FFFCCF8091E30080688093E30082E07F
:1053B000111183E08093610395C08058823008F01A
:1053C00091C080916403909165038C3D23E0920726
:1053D000A1F583E08A838AE289834FB7F894DE01DE
:1053E000139620E03EE051E2E32FF0E050935700A7
:1053F000E49120FF03C0E295EF703F5FEF708E2FC6
:1054000090E0EA30C0F0C7968D939D932F5F2431D2
:1054100059F74FBF8091E800877F8093E8006AE2E8
:1054200070E0CE0101960E9464268091E8008B779F
:105430008093E80057C0C096E7CF609166037091F3
:105440006703AE014F5F5F4F0E949025BC01892B1F
:1054500009F448C09091E800977F9093E800898113
:105460009A810E94C226E1CF8038E1F58091E80060
:10547000877F8093E80080915D038093F10045CFA2
:10548000811130C090916403923060F58091E80002
:10549000877F8093E80090935D030E945527809159
:1054A0005D03882311F084E005C08091E30087FD4F
:1054B000FACF81E0809361030E94902413C0809111
:1054C0006403813079F481E0933009F080E08093C7
:1054D0005F031092E9008091E800877F8093E800E5
:1054E0000E9455278091E80083FF0AC08091E80060
:1054F000877F8093E8008091EB0080628093EB00CF
:10550000AA960FB6F894DEBF0FBECDBFDF91CF9144
:105510001F9108950895CF93809161038823A1F08E
:10552000C091E900CF709091EC00892F817090FDBF
:1055300080E8C82B1092E9008091E80083FD0E946A
:105540003829CF70C093E900CF910895DB018F9384
:105550009F930E94212BBF91AF91A29F800D911D1F
:10556000A39F900DB29F900D11240895991B79E08F
:1055700004C0991F961708F0961B881F7A95C9F7E3
:1055800080950895AA1BBB1B51E107C0AA1FBB1F32
:10559000A617B70710F0A61BB70B881F991F5A95BF
:1055A000A9F780959095BC01CD01089597FB072E32
:1055B00016F4009407D077FD09D00E94C22A07FC98
:1055C00005D03EF4909581959F4F08957095619513
:1055D0007F4F0895A1E21A2EAA1BBB1BFD010DC02F
:1055E000AA1FBB1FEE1FFF1FA217B307E407F50793
:1055F00020F0A21BB30BE40BF50B661F771F881F6F
:10560000991F1A9469F760957095809590959B0104
:10561000AC01BD01CF010895EE0FFF1F0590F4917D
:10562000E02D0994A29FB001B39FC001A39F700D0C
:10563000811D1124911DB29F700D811D1124911D9A
:1056400008950E94122BA59F900DB49F900DA49FCA
:10565000800D911D112408958F929F92AF92BF9259
:10566000CF92DF92EF92FF92CF93DF93EC016881AC
:1056700079818A819B81611571058105910521F4EC
:1056800064E279ED8BE597E02DE133EF41E050E006
:105690000E94DD2B49015A019B01AC01A7EAB1E44C
:1056A0000E94212B6B017C01ACEEB4EFA5019401AB
:1056B0000E94FF2BDC01CB018C0D9D1DAE1DBF1D7B
:1056C000B7FF03C00197A109B04888839983AA83D3
:1056D000BB839F77DF91CF91FF90EF90DF90CF90CA
:1056E000BF90AF909F908F9008950E942C2B0895AB
:1056F00080E091E00E942C2B0895B0E0A0E0809320
:10570000000190930101A0930201B0930301089559
:10571000FC014150504030F001900616D1F731970E
:10572000CF010895882799270895F999FECF92BD52
:1057300081BDF89A992780B50895A6E1B0E044E0CC
:1057400050E00C94CF2BA8E1B0E042E050E00C9484
:10575000CF2B262FF999FECF92BD81BDF89A0197E4
:1057600000B4021639F01FBA20BD0FB6F894FA9AA9
:10577000F99A0FBE08950396272F0E94AA2B0E9424
:10578000A92B252F0E94AA2B242F0C94AA2B01961B
:10579000272F0E94AA2B0C94A92BDC01CB01FC0122
:1057A000F999FECF06C0F2BDE1BDF89A319600B47A
:1057B0000D9241505040B8F70895052E97FB1EF406
:1057C00000940E94F42B57FD07D00E94EA2A07FCA0
:1057D00003D04EF40C94F42B5095409530952195C0
:1057E0003F4F4F4F5F4F089590958095709561950D
:1057F0007F4F8F4F9F4F0895B7FF0C94212B0E942E
:10580000212B821B930B0895F894FFCFFE0D060EFB
:105810000D0E120E170E1C0E210E260E2B0E300E24
:10582000350E3A0E3E0E430E460E490E4C0E4F0EEE
:10583000510E540E94149414EC14EC143E155A1595
:10584000C114C1146515F115001600165C16C114BB
:10585000C1146516DA16DA16E316E316E516E31632
:10586000E316E316DA16DA16EA16E316E316EA1674
:1058700061298929722A8929722ABC29DD29722A7B
:04588000342A402A5C
:10588400010000000102001000101001191A1B1C75
:105894001D1E1F202122B5022808641E140A321E70
:1058A400BE2335240A240624F42301E200E900EA95
:1058B40000B500B600B700CD008301CC008A019288
:1058C4000194012102230224022502260227022A2E
:1058D40002B300B4006F007000818283F0F1C667E8
:1058E40066379431303534979633F490919293958A
:1058F4000001020202020606060909090909090F44
:105904000F0F0F0F0F151515181919191919191942
:105914001919192324252525252525E200E900EA5E
:1059240000B500B600B700CD008301CC008A019217
:105934000194012102230224022502260227022ABD
:0C59440002B300B4006F00700081828389
:00000001FF
